:030000000219D50D
:0C19D500787FE4F6D8FD758121021A1C11
:101BE0005374613D2562752C2562752C2562752C18
:101BF0002562752C2562752C2562752C2562750D64
:101C00000A00416C61726D3D4C6F77566F6C740DBC
:101C10000A005665723D2562752E2562750D0A0013
:101C200054656D703D252E31660D0A00567265664D
:101C30003D252E32660D0A004D6F64653D256275A7
:101C40000D0A004F4B0D0A004552520D0A00536811
:091C50007574646F776E0D0A00D3
:101F5E0047009B52554E210D0A00410000FF4100E3
:101F6E0001FF410002FF410003FF410004FF410059
:101F7E0005FF41000600410007FF602000D9000068
:101F8E00140014FF17430001F401F4FF1450000075
:101F9E00140014FF23880000100010FF22B7410028
:021FAE00080425
:09237F00EF60037F01227F0022C0
:1021F700A2B2E433FF12237FEF70037F0222A2B360
:10220700E433FF12237FEF70037F0322A2B4E4338A
:0D221700FF12237FEF70037F01227F002262
:10000E00E49000B4F0A3F0A3F0A3F0A3F0A3F0905B
:04001E0000B1F0221B
:102096007BFF7A1B79E09000B1E0900113F090008D
:1020A600B2E0900114F09000B3E0900115F09000BA
:1020B600B4E0900116F09000B5E0900117F09000A2
:1020C600B6E0900118F09000B7E0900119F002090F
:0120D60013F6
:101AE8009000B1E0FF900000E06F703C9000B2E021
:101AF800FF900001E06F70309000B4E0FF900002AA
:101B0800E0B507249000B5E0FF900003E0B50718A2
:101B18009000B6E0FF900004E0B5070C9000B7E035
:101B2800FF900005E06F60339000B1E0900000F096
:101B38009000B2E0900001F09000B4E0900002F054
:101B48009000B5E0900003F09000B6E0900004F03B
:0B1B58009000B7E0900005F01220960E
:011B6300225F
:101C59009000C1E0FCA3E0FDA3E0FEA3E0FF90013A
:101C69000C12081FE4FFFE7D407C4090010CE0F857
:101C7900A3E0F9A3E0FAA3E0FB1202C4502090000C
:101C890006E004F0C394027480948040389000C741
:101C9900E0703204F07BFF7A1C7902020913E490A8
:101CA9000006F07F667E667D467C4090010CE0F878
:101CB900A3E0F9A3E0FAA3E0FB1202C46007400520
:051CC900E49000C7F0EB
:011CCE0022F3
:1020D7009000B1E060037F00229000B7E0700E909F
:1020E70000B4E07008A3E07004A3E060037F00225F
:1020F7007F667E667D267C409000C1E0F8A3E0F90C
:10210700A3E0FAA3E0FB1202C450037F01227F0081
:0121170022A5
:101D3E00900106EFF060061220D7EF705912000ED8
:101D4E00900106E09000B1F024FD601D24FE602499
:101D5E0024FE602524FE602C24FE602F24FE6030BD
:101D6E00240C70329000B7802A9000B77401F09066
:101D7E0000B4F0229000B4801A9000B47401F09078
:101D8E0000B8F0229000B47402F0229000B68003E6
:071D9E009000B57401F02272
:0E2358009000B1E0B5070302000E121D3E22F8
:10193100E4FF9000FAF09000B4E0FD7C00640170D7
:10194100119000B8E060079000BCE0FF80207F01AB
:10195100801CED64024C70169000B8E0600A9000A3
:10196100BCE09000FAF080069000FA7401F090005B
:10197100B7E0700E9000B4E07008A3E07004A3E03B
:10198100600AD2979000B37401F08007C297E49087
:1019910000B3F09000B7E06003C38001D39296EFEB
:1019A10060047F5F800C9000FAE060047F1C80027D
:1019B100E4FF1222D29000B5E060047F5F8002E470
:1019C100FF1222ED9000B6E060047F5F8002E4FF29
:0319D100122308D6
:0119D40022F0
:06238800121931021AE8EF
:0D1FB1007B017A0079CA121FBE7A00798C7C
:101FBE00900004E4F5F01207A2900006E412064F1A
:101FCE00900007E4F5F01207A2900009E412064F04
:101FDE0090000AE412064F90000BE412064F900098
:101FEE000CE412064F90000DE4F5F01207A29000DB
:051FFE0001E402064FA2
:101B6400900103EDF0900100EBF0A3EAF0A3E9F09B
:101B74009000091205DD70631220D7EF705D9001AB
:101B840000E0FBA3E0FAA3E0F99000097401120657
:101B94004F900006E412064F900007E4F5F0120798
:101BA400A290000BE412064F900103E06403702B33
:101BB400A3E0FF7E006402700C9000B17402F09008
:101BC40000B7148011EF64014E70109000B17406D8
:0C1BD400F09000B47401F09000B9F02211
:1021180090000A1205DD703590000A0412064F90EF
:102128000006E412064F900007E4F5F01207A2ED4E
:1021380064017019900104E0640170047F0B800A47
:0E214800900104E0640270057F0D121D3E221E
:101E0600900101EDF0900100EFF064037037A3E05C
:101E16006402700E9000B1E06403700280147F01CA
:101E26008033900101E06401700F9000B1E0640717
:101E3600700302000E7F05801C900101E0640370B0
:101E4600177F098010900100E06401700BA3E06425
:091E56000370057F0912235822D4
:08222400900103E0FFA3E0FDBF
:10222C00900105EDF0EF64037016E0640270047F1A
:10223C0003800A900105E0640170057F07122358A2
:01224C00226F
:10200300900100EFF0A3EDF01220D7EF7041120022
:102013000E900100E064037036A3E0FF7E006402CB
:1020230070159000B17404F09000B77401F0900043
:10203300B4F09000B9F022EF64014E70129000B139
:102043007408F09000B47401F09000B8F0A3F0228B
:10183C00900103EDF0900100EBF0A3EAF0A3E9F0C6
:10184C0090000A1205DDFF6003021922900100E0EE
:10185C00FBA3E0FAA3E0F99000091205DD600C90FF
:10186C0000B9E0600312000E021922900103E0643B
:10187C00017027EF7024A3E0FF7E006401700A90D2
:10188C0000B1E0640A7002800EEF64024E700B909F
:10189C0000B1E0640C700312000E900100E0FBA399
:1018AC00E0FAA3E0F990000C1205DD600B9000B992
:1018BC00E0600312000E805E900100E0FBA3E0FAF2
:1018CC00A3E0F990000B1205DD601B90000BE412F5
:1018DC00064F90000D12071DD3942CE5F094015087
:1018EC00031222248030900100E0FBA3E0FAA3E075
:1018FC00F99000061205DDFF7E006401700A90006D
:10190C00070475F0900207A2C3EF9402EE64809472
:10191C00804011122224900100E0FBA3E0FAA3E026
:05192C00F9121FBE22AC
:101103009000FAEBF0A3EAF0A3E9F09000FAE0FB19
:10111300A3E0FAA3E0F91205C46D700302121E9056
:101123000002E475F01412075590000212071DC364
:101133009428E5F0940050030212329000FAE0FB89
:10114300A3E0FAA3E0F9ED12063D9000FAE0FBA359
:10115300E0FAA3E0F9900002E4F5F01207A2120509
:10116300C470649000FAE0FBA3E0FAA3E0F99000F6
:1011730001740112064F900004E4F5F01207A290E7
:10118300000712071DD39400E5F0940050030212E8
:10119300329000FAE0FBA3E0FAA3E0F99000061214
:1011A30005DD640160030212329000067402120628
:1011B3004F900007E4F5F01207A290000B740112A0
:1011C300064F90000D80629000FAE0FBA3E0FAA3C3
:1011D300E0F99000011205DD602D9000091205DD94
:1011E300701790000A1205DD700F90000B1205DDD9
:1011F30070079000060412060A9000FEE0FDA3E0CB
:10120300900104F012183C9000FAE0FBA3E0FAA36B
:10121300E0F9900001E412064F80149000FAE0FB1D
:10122300A3E0FAA3E0F9900002E4F5F01207A2901C
:1012330000FAE0FBA3E0FAA3E0F99000011205DD58
:1012430070030213C61205C460030213C6900004A0
:1012530012071DFFAEF0E4FCFD7B607AEAF9F8D3D8
:101263001207DD40159000FAE0FBA3E0FAA3E0F9D2
:10127300900004E475F0141207559000FAE0FBA304
:10128300E0FAA3E0F990000B1205DD605A90000D1F
:1012930012071DFFAEF0E4FCFD7B607AEAF9F8D398
:1012A3001207DD40159000FAE0FBA3E0FAA3E0F992
:1012B30090000DE475F0141207559000FAE0FBA3BB
:1012C300E0FAA3E0F990000D12071DD3942CE5F08A
:1012D3009401401390000C740112064F9000FEE03D
:1012E300FFA3E0FD1220039000FEE0FD64037031D4
:1012F300A3E0FF64016005EF640270259000FAE04B
:10130300FBA3E0FAA3E0F990000412071DC394E8DD
:10131300E5F09403400B9000FFE0900104F0121BF2
:10132300649000FEE0FD640160030213C6A3E0FFC6
:1013330064016008EF640260030213C69000FAE0E0
:10134300FBA3E0FAA3E0F990000412071DC3941075
:10135300E5F09427400D9000FFE0900104F0122186
:101363001880609000FAE0FBA3E0FAA3E0F9900094
:101373000A1205DD704D9000FFE06401701C9000BF
:10138300B1E0640B60141220D7EF600302144F9096
:1013930000B1740AF09000B680229000FFE064026E
:1013A30070219000B1E0640D60191220D7EF600343
:1013B30002144F9000B1740CF09000B57401F090DA
:1013C30000B9F09000FAE0FBA3E0FAA3E0F9900083
:1013D3000712071DFFAEF0D39400EE9400406DD3C7
:1013E300EF9414EE9400400B90000774FF75F0EC3B
:1013F3000207559000061205DD640170419000FE5E
:10140300E0FF7E0064017010A3E06401700A9000A5
:10141300B1E0640B70028016EF64014E701590000A
:10142300FFE06402700D9000B1E0640D70051200DE
:101433000E800B9000FEE0FFA3E0FD121E0690005D
:0D144300FAE0FBA3E0FAA3E0F9121FBE22BD
:101743001221F79000F9EFF0900007E0FE6F60239D
:10175300EEF4601712000E121931121FB17A0079DC
:10176300A2121FBEE49000C8F0A3F09000F9E0902D
:101773000007F09000F9E0FF9000B2F06403600509
:10178300EF6401705FA2B7E433FF12237FAD077BE1
:10179300017A0079CA9000F9E09000FEF0A3740189
:1017A300F0121103A2B6E433FF12237FAD077B01CE
:1017B3007A00798C9000F9E09000FEF0A37402F0B7
:1017C300121103A2B5E433FF12237FAD077B017A25
:1017D3000079A29000F9E09000FEF0A37403F012E8
:1017E3001103800A121FB17A0079A2121FBE900062
:1017F300B2E06402703B9000C8E0FEA3E0FFE4FCAB
:10180300FD7BE87AFDF9F8D31207DD400E9000C99D
:10181300E02414F09000C8E03400F0C39000C9E065
:1018230094889000C8E09413400EE4F0A3F0021DE6
:08183300A5E49000C8F0A3F049
:01183B00228A
:100D2B007B017A00794C9000F9EBF0A3EAF0A3E990
:100D3B00F01205C4643C60030211029000F9E0FB61
:100D4B00A3E0FAA3E0F99000011205DD643E600315
:100D5B000211029000021205DD64416003020E1BBA
:100D6B009000031205DDB431177BFF7A1C791290CA
:100D7B0000C5E0900113F09000C6E0900114807163
:100D8B009000F9E0FBA3E0FAA3E0F9900003120551
:100D9B00DDB4320B7BFF7A1C79209000BD801D9057
:100DAB0000F9E0FBA3E0FAA3E0F99000031205DDE4
:100DBB00B4331D7BFF7A1C792C9000C1E0FCA3E0BF
:100DCB00FDA3E0FEA3E0FF90011312081F0210FF2A
:100DDB009000F9E0FBA3E0FAA3E0F9900003120501
:100DEB00DDB434117BFF7A1C79389000B1E09001AF
:100DFB0013F00210FF9000F9E0FBA3E0FAA3E0F977
:100E0B009000031205DD6435600302110202209687
:100E1B009000F9E0FBA3E0FAA3E0F99000021205C1
:100E2B00DD644D6003020EE29000031205DDFF331B
:100E3B0095E0FEC3EF9430EE648094805003020E75
:0F0E4B00E2D3EF9439EE648094804003020EE20C
:100E5A009000031205DD24D09000FCF090000412EB
:100E6A0005DDFF3395E0FEC3EF9430EE6480948095
:100E7A00401ED3EF9439EE6480948050139000049E
:100E8A001205DD24D0FF9000FCE075F00AA42FF0D3
:100E9A009000FCE0FF7E00D3940D74809480502F64
:100EAA00EF700C12000E7BFF7A1C79430210FF12BE
:100EBA0020D7EF60097BFF7A1C79480210FF900067
:100ECA00FCE0FF121D3E7BFF7A1C79430210FF7B78
:080EDA00FF7A1C79480210FFA9
:100EE2009000F9E0FBA3E0FAA3E0F99000021205FA
:100EF200DDB442159000031205DDB4300C12000E71
:100F02007BFF7A1C79430210FF9000F9E0FBA3E01B
:100F1200FAA3E0F99000021205DD644360030210B7
:100F2200399000041205DD643D600302103990001F
:100F3200051205DDFF64306008EF643160030210C2
:010F42003975
:100F4300EFB431047F0180027F009000FCEFF0607A
:100F53000F1220D7EF60097BFF7A1C79480210FF3C
:100F63009000F9E0FBA3E0FAA3E0F9900003120577
:100F7300DDFFB431189000FCE09000B7F060047E10
:100F83000180027E009000B1EEF0021012EFB43245
:100F93001D9000FCE0FF60047E0180027E00900053
:100FA300B4EEF0EF60699000B17405F080619000D9
:100FB300031205DDFFB4331D9000FCE0FE60047DE9
:100FC3000280027D009000B4EDF0EE60429000B12B
:100FD3007409F0803AEFB434129000FCE09000B54D
:100FE300F0602C9000B1740DF08024900003120582
:100FF300DDB435129000FCE09000B6F06011900073
:10100300B1740BF080097BFF7A1C79480210FF90C2
:1010130000FCE070189000B7E070129000B4E0702C
:101023000CA3E07008A3E070049000B1F07BFF7A9A
:061033001C79430210FFCE
:101039009000F9E0FBA3E0FAA3E0F99000021205A1
:10104900DD644470639000031205DD6431705990CA
:1010590000041205DD643D704F9000051205DDFFA7
:0910690064306005EF6431703F52
:10107200EFB431047F0180027F009000FCEFF0604A
:10108200149000B4E0700E1220D7EF60087BFF7A54
:101092001C794880689000FCE09000B8F0600890ED
:0F10A20000B4E0700204F07BFF7A1C7943804EAB
:1010B1009000F9E0FBA3E0FAA3E0F9900002120529
:1010C100DD645270339000031205DD644570299090
:1010D10000041205DD6442701F9000051205DDB4A5
:1010E1004F169000061205DDB44F0D900007120552
:1010F100DDB4540443C760227BFF7A1C794812098E
:0111010013DA
:0111020022CA
:1022B70090000BE0D3940074809480400DE014F0FC
:0B22C7007008120D2BE490000AF022BA
:101450009000FD12082B4395133390010112082BC5
:1014600043889333900109E4F0A3F0A374EFF07F75
:101470000F1220539000FBEEF0A3EFF0E4FF1220D8
:10148000539000F9EEF0A3EFF0900109E0FBA3E028
:10149000FAA3E0F91206F2FDACF0EC1203427B6F06
:1014A0007A127983783F12011EC004C005C006C0BD
:1014B000079000FBE0FCA3E0FDE4120342A804A9AE
:1014C00005AA06AB07D007D006D005D00412022724
:1014D0009000C112081F9000F9E0FCA3E0FDE412A7
:1014E0000342E4FBFA79807844120227E4FBFA799C
:1014F000A0784012011E90010512081F7F0A7ED7B6
:101500007D237C3C900105E0F8A3E0F9A3E0FAA379
:10151000E0FB1202C4500A90010512082B3C23D7AD
:101520000A900105E0F8A3E0F9A3E0FAA3E0FBE4E8
:10153000FFFE7DA07C401200297B007A40791C7858
:101540004612011E900105E0F8A3E0F9A3E0FAA31A
:10155000E0FB1202277B007A40791C7846120227B2
:1015600012164E7B007AE079767845120227C00485
:10157000C005C006C0079000FDE0F8A3E0F9A3E0B5
:10158000FAA3E0FBE4FFFE7D807C3F120227D0033C
:10159000D002D001D00012002DA804A905AA06ABE4
:1015A00007E4FFFE7D807C3F120227900101E0F8F6
:1015B000A3E0F9A3E0FAA3E0FB120029E4FBFAF9A7
:1015C000783F12002D9000BD12081FE4FFFE7D2021
:1015D0007CC29000BDE0F8A3E0F9A3E0FAA3E0FB31
:1015E0001202C4500C9000BD12082BC220000080D3
:1015F00026E4FFFE7DF07C429000BDE0F8A3E0F918
:10160000A3E0FAA3E0FB1202C4600C400A9000BD04
:0A16100012082B42F00000021C59E2
:0300030002215681
:10215600C0E0C0F0C083C082C0D075D000C000C04F
:1021660001C002C003C004C005C006C00712227128
:1021760043C760D007D006D005D004D003D002D024
:0E21860001D000D0D0D082D083D0F0D0E03293
:03000B00021CCF05
:101CCF00C0E0C0F0C083C082C0D075D000C000C0DB
:101CDF0001C002C003C004C005C006C0079000BB0E
:101CEF00E004F070069000BAE004F09000B8E060F5
:101CFF001A9000BAE0FEA3E0FF7C007D3F12067150
:101D0F00ED4C700DA3E06401F080069000BC7401EF
:101D1F00F0121A61D007D006D005D004D003D0023C
:0F1D2F00D001D000D0D0D082D083D0F0D0E0321D
:03002300021EB703
:101EB700C0E0C083C082C0D075D000C0073099078A
:101EC700C299900009E4F030982FC298900009E079
:101ED7007027A3E0C39440748094804002E4F0909C
:101EE700000AE0FF04F0744C2FF582E43400F58318
:101EF700E599F090000B7403F0D007D0D0D082D0D2
:041F070083D0E03271
:102295001222711221C712233612224D121F0B1260
:1022A5002323D2AF7B017A00799B122194121E5F02
:0222B50080FBAC
:101A6100E4FF900008E0FEEFC39E507AEF75F008A6
:101A7100A424DAF582E43400F583E0FCA3E04C60B1
:101A810061EF75F008A424DAF582E43400F583747B
:101A9100FFF5F01206C6EF75F008A424DAF582E42A
:101AA1003400F583E0FCA3E04C7037EF75F008A437
:101AB10024DCF582E43400F583E0FCA3E0FDEF755E
:101AC100F008A424DAF582E43400F583ECF0A3ED08
:101AD100F0EF75F008A424D9F582E43400F583749D
:061AE10001F00F021A6380
:011AE70022DC
:101E5F00E49000F9F0900008E0FF9000F9E0FEC375
:101E6F009F5044EE75F008A424D9F582E43400F5B0
:101E7F0083E0602B9000F9E0FF75F008A424D9F5FA
:101E8F0082E43400F583E4F0EF75F008A424DEF566
:101E9F0082E43400F583A3E0FAA3E0F91208A290DC
:071EAF0000F9E004F080AE31
:011EB6002209
:1021C70012000EE49000B2F09000BC04F09000C53D
:1021D700F0E4A3F0A3F0A3F0A3F0A304F090008C25
:1021E700F09000A2F0FB121FB37A0079A2021FBE83
:10232300438E805389F0758A40758CA2C28DD28CFE
:03233300D2A9220A
:10224D00759850438E40538EFE53890F758BCC7508
:10225D008DFFC2ABD28ED2ACE490000AF0A3F09009
:04226D000009F02252
:1023360043BA8090FEA8743FF053BA7F75DE2443FB
:03234600BC802236
:101F0B0043BA8090FECCE4F0A3F090FEC87460F06E
:101F1B00A3F0A3F090FECC7444F0A37404F090FEF5
:101F2B00D0E4F0A374EFF0A3E4F0A37464F090FE9C
:101F3B00D5E4F0A3F0A3F0A3F0A3F0A3F090FEB1CF
:101F4B00742AF090FEDD7480F090FEC07401F053A3
:031F5B00BA7F2228
:1022D200EFD394647480948040027F6443BA809008
:0B22E200FED9E4F0A3EFF053BA7F2216
:1022ED00EFD394647480948040027F6443BA8090ED
:0B22FD00FED7E4F0A3EFF053BA7F22FD
:10230800EFD394647480948040027F6443BA8090D1
:0B231800FED5E4F0A3EFF053BA7F22E3
:0F234900E4FF1222D2E4FF1222EDE4FF02230888
:0E236600900140EFF0122374900140E0FF223E
:0B237400900009E070FA04F08F99223D
:102194009000F9EBF0A3EAF0A3E9F09000F9E0FB7A
:1021A400A3E0FAA3E0F91205C460179000F9A3E4D0
:1021B40075F0011206DCA9F0FA1205C4FF122374AB
:0321C40080D9229D
:10205300EFD3940F7480948040028032E4F5BDF591
:10206300BEE5BC54F044404FF5BC0000E4FDEDC3B5
:1020730094FA748094805016E5BC30E50E53BCDFAF
:10208300AFBDEFFEACBEECFBEBFF220D80E07E109C
:022093007F00CC
:012095002228
:102271007592EA759115E4F5B2F5B1F5947593FF90
:10228100F5967595FFF5B475B3FFF5CA75C9FFD21B
:0422910096C2972238
:101DA50012000E1219317BFF7A1C794E120913901D
:101DB5000009E070FAC2A9C2ACC2A8C2AF12234999
:101DC500E4F5927591FFF5947593FFF5967595FF7A
:101DD500F5B275B1FFF5B475B3FFF5CA75C9FF5313
:101DE500B1FBC288C289D2A8D2AF758702000000B4
:101DF50000122271122323D2ACE49000C8F0A3F0A4
:011E050022BA
:100026000203B0E86480F8E933E83360110460F055
:10003600ED33EC337009E8FCE9FDEAFEEBFF220440
:1000460060DED3EB9FEA9EE99DE8C2E78CF0C2F73B
:1000560095F0400CE8CCF8E9CDF9EACEFAEBCFFB07
:1000660012037B85D0F05804700320D5B3E80470E2
:10007600075002B2D50203BA92D5EC0460F7E4CC7D
:10008600C0E0C398F8603B94186008400DD0E0FBD0
:10009600020392E4FBFAC9FC8028E830E406E4C9CE
:1000A600FBE4CAFCE830E305E4C9CACBFCE8540724
:1000B6006010F8C3E913F9EA13FAEB13FBEC13FC2F
:1000C600D8F130F52FC3E49CFCEF9BFFEE9AFEEDD2
:1000D60099FDD0E0FBEF4E4D4C701222DB0302037C
:1000E600B7EC2CFCEF33FFEE33FEED33FDED30E7DE
:1000F600EB020392EF2BFFEE3AFEED39FDD0E0FB6B
:1001060050130BBB00030203BAED13FDEE13FEEF13
:0801160013FFEC13FC0203923D
:10011E00EC4D6011E8497017ED33EC3304600DE4DB
:10012E00FCFFFEFD22E933E8330470F80203B0123F
:10013E00037B58046009E4CC248150062850090240
:10014E0003BA2840030203B7C0E0EB4A7044B980FB
:10015E0006D0E0FB0203A6EF4E701CBD8008EBFF3D
:10016E00EAFEE9FD80EBE98DF0A4FEE5F002020760
:10017E00E9CDF9EAFEEBFFEF89F0A4FCE5F0CE89BC
:10018E00F0A42EFFE435F0CD89F0A42DFEE435F079
:10019E008067EF4E7005BD80D780C3EF8BF0A4ACA7
:1001AE00F0EE8BF0A42CFCE435F0F8EF8AF0A42CE2
:1001BE00E5F038FCE433CB8DF0A42CFCE5F03BF8F5
:1001CE00EE8AF0A42CFCE5F038F8E433CF89F0A4E5
:1001DE002CFCE5F038CF3400CE89F0A42FFFE5F0EB
:1001EE003EFEE433C98DF0A42EFEE5F039CD8AF043
:1001FE00A42FFFE5F03EFEE43DFD33D0E0FB5007BB
:10020E000BBB000F0203BAEC2CFCEF33FFEE33FEF8
:06021E00ED33FD02039226
:100224000203BAEC5D046005E8590470030203B0EC
:1002340012037B580460F6EC4860F2EC7004FDFE97
:10024400FF22C860DB2481C85009C39860025006AD
:100254000203B79850CAF582E9294B4A7005AB826C
:100264000203A675F0007C1A7880C3EF9BEE9AED2A
:1002740099400DC3EF9BFFEE9AFEED99FDE842F025
:10028400DC23ACF0D0E0FFD0E0FED0E0FDAB822078
:10029400E7101BEB60BAEC2CFCEF33FFEE33FEED02
:1002A40033FD020392E803F830E705C0F075F0006F
:1002B400EF2FFFEE33FEED33FD40B830E7C280AAE6
:1002C40074F8CC6480CCC86480C8F58204604FC3E1
:1002D400EB9FF5F0EA9E42F0E99D42F0E89C45F080
:1002E400603C501DE5825FFFE582D313CB5BCBF40A
:1002F4002B5582FB50280ABA002409B90020088033
:100304001DE5825BFBE582D313CF5FCFF4C3132FCC
:100314005582FF50090EBE00050DBD00010CC3EB54
:100324009FF5F0EA9E42F0E99D42F0E89C45F060BA
:0903340007CC4820E701B3EC22DC
:10033D0075F020800E75F010800575F0087D007E3B
:10034D00007F003392D530D5031207CFEC33401028
:10035D00EF33FFEE33FEED33FDEC33FCD5F0ED2244
:0E036D00E5F0247EA2D513CC92E7CDCEFF2280
:1008A800E5082413F582E43401F583E00508229075
:1008B8000110300703900113E475F00112085C027F
:1008C80005C42000E97F2ED2008018EF540F249031
:1008D800D43440D4FF30040BEF24BFB41A005003C3
:1008E8002461FFE50960021509050CE50C70020595
:1008F8000B30070E900110E475F00112085CEF024E
:10090800063D0223667403D2078003E4C207F50894
:10091800900110120873E4F509F50BF50CE5096070
:10092800077F201208EB80F5750AFFC201C200C2DA
:1009380002C203C205C206C2081208B7FF700D3012
:1009480007057F001208FCAF0CAE0B22B4255FC26E
:10095800D5C2041208B7FF24D0B40A00501A75F0A3
:100968000A780930D50508B6FF0106C6A426F62080
:10097800D5047002D20380D924CFB41A00EF5004F2
:10098800C2E5D204020BEED20180C6D20080C0D2EA
:100998000280BCD2D580BAD20580B47F201208EB81
:1009A8002002077401B5090040F11208A8FF1208D7
:1009B800EB020925D208D20680951208A8FB120876
:1009C800A8FA1208A8F94A4B700679EC7A0C7BFF52
:1009D80020022EE509602A7E008E827583001205AA
:1009E800DD60060EEE650A70F0C2D5EBC0E0EAC025
:1009F800E0E9C0E0EE120C4FD0E0F9D0E0FAD0E028
:100A0800FB1205C4FF60AAEBC0E0EAC0E0E9C0E061
:100A18001208EBD0E02401F9D0E03400FAD0E0FB72
:100A2800E50A0460DCD50AD98087D20280A2120CBC
:100A38003160F7E50A7001041203C5A90A600DE5E3
:100A48000A600914F50A120CD9EF60F3EA30E702DC
:100A5800F404C3995079EAF4250A0430E701E40460
:100A6800F50A800D120C3160C1EA050A250A120345
:100A7800C5EA90013FF030E701E4250A04D50A04ED
:100A880020050114120C4FE4C0E0120CD990013F6C
:100A9800E0601320E70714F01208D3802204F0D096
:100AA800E014C0E07F001208D3E50A60071208CA04
:100AB800150A800B3005031208CAD0E0020925D0B8
:100AC800E00480C4120C31609EE50A041203C5904C
:100AD800013FEAF0E50A2005026001042404120C33
:010AE8004FBE
:100AE90074FF04C0E0120CD91208D3E50A200502EC
:100AF90060031208CAD0E0B50AE87F451208DD9004
:100B0900013FE07F2B30E7047F2DF404C0E0120899
:100B1900EBD0E075F00A84C0F01208D4D0E01208D6
:100B2900D4020925791080027908C206C208800812
:100B3900D2D5790A8004790AC2D5E50A047002F58A
:100B49000AE4FAFDFEFF1208A8FC7B082001131233
:100B590008A8FD7B1030000A1208A8FE1208A8FF99
:100B69007B20EC3382D592D55013C3E43000069F25
:100B7900FFE49EFEE42001039DFDE49CFCE4CBF828
:100B8900C201EC700CCFCECDCCE824F8F870F3801C
:100B990017C3EF33FFEE33FEED33FDEC33FCEB33DC
:100BA900FB994002FB0FD8E9EB300105F8D0E0C40E
:100BB90048B201C0E00AEC4D4E4F78207B0070C26C
:100BC900EAB50A0040BCC0E0120C51D0F0D0E020D8
:100BD9000104C4C0E0C4B201C0F01208D4D0F0D5F9
:100BE900F0EB02092512087C09C2530B2D58099311
:100BF9004C098F420B314F0B39440B394909A84332
:100C09000B3F550A6C460ACC450A36470D0C50096C
:100C1900972D099B2E09BE2B099F2309BC200CF592
:100C29002A095748000009B6E50AB4FF03750A0600
:100C39001208A8FC1208A8FD1208A8FE1208A8FFAD
:100C4900900138020402790AA2D52003143005095B
:100C5900B910020404B9080104A2D5200602500102
:100C6900042002689202B509005034C0E07F2030A8
:100C790003197F30A20272067205500F120CA8C226
:100C890002C206C205C2087F30800F300503E9C0E1
:100C9900E01208EB300503D0E0F9D0E0B509CC301B
:100CA90005177F30B9100C1208EB7F583004077F05
:100CB900788003B908031208EB3002057F2D02087A
:100CC900EB7F202008F87F2B2006F322920280CFA9
:100CD9007F00B40700500B2438F582E43401F58312
:100CE900E0FF22286E756C6C2900D2011208A83029
:100CF90001F8C201780930D50108F60209572D50CB
:100D09004349581208A82403B405004001E4900D92
:100D190007931208DC743A1208DCD203750904023D
:020D29000B2D90
:10161A003E9248DA3ECCCCCD3F2AAAAB400000002D
:10162A003F8000003F9837F03FB504F33FD744FCB2
:10163A003E3172173EB172173F0515913EDE5BD9F6
:10164A00D2008002C200EDD2E7F8CD33EC33047049
:10165A000BBD800592D50203BA0203B040FBD31436
:10166A0060F2F5F07C3FEE7A00C39496C8948B4002
:10167A00230AC89469C8941A401A0AC89468C89474
:10168A001F40110AC8945AC89425400805F07A00E8
:10169A00CDC2E7CDC0F090010C12081FEA2323C087
:1016AA00E0242AF582E43416F58312080F12002D7D
:1016BA00ECC0E0EDC0E0EEC0E0EFC0E01207F3904E
:1016CA00010C120803120029D0E0FBD0E0FAD0E0A6
:1016DA00F9D0E0B2E7F812022790010C12081F9025
:1016EA00161A740312050790010C12080312011E40
:1016FA00D0E0600F2436F582E43416F58312080F21
:10170A0012002D90010C12081FD0E0C3947FFDE453
:10171A009400FC1203427B187A727931783F1201E5
:10172A001E90010C12080312002D30000B7BD97A8F
:09173A005B79DE783E12011E22EB
:10037B00E9D2E7C933E833F892D5EDD2E7CD33ECC8
:07038B0033FC5002B2D52241
:10039200EC30E7100FBF000C0EBE00080DBD0004CC
:1003A2000BEB6014A2D5EB13FCED92E7FD2274FF78
:1003B200FCFDFEFF22E480F8A2D574FF13FC7D80D1
:0303C200E480EFE5
:1003C500F920E73624F950037907E4F42402FBE524
:1003D50082158270021583DBF6E024FB501BE96071
:1003E50014E4F0E582158270021583E004F0B40A86
:0D03F50008E4F0D9EE7401F00A22C2D5220E
:10040200ED33EC3392D5FA602AB4FF33EDC2E77BC9
:10041200FF60067A047927E4227A04793020D50431
:100422007A04792B224E614E002B494E46002D490B
:100432004E4600E47A08F0A3DAFC7B00740722C07F
:1004420083C082ECC0E0EDC0E0EEC0E0EFC0E0EAC5
:1004520075F010A4CAABF075F04DA42BFBE435F097
:10046200FCEA2410FAEB34C5FBEC34D9FCEDC2E70C
:10047200FF75F056A4F42411C5F0F434C58FF0A42E
:100482002AE5F03BE43CF020E714120584D0E0FFBB
:10049200D0E0FED0E0FDD0E0FC1202278014F4048C
:1004A200120584D0E0FFD0E0FED0E0FDD0E0FC12E7
:1004B200011ED082D083E0FAEDD2E7CD33EC3324B3
:1004C20082FBE4C3CF33CFCE33CECD33CD33DBF398
:1004D2007B0775F00A846004F0A31B0AE5F0F0A321
:1004E2008FF0740AA4FFACF08EF0740AA42CFEAC58
:1004F200F050010C8DF0740AA42CFDE435F0F0A349
:05050200DBDE7407229E
:10050700C0E0EFFBEEFAEDF9ECF812011ED0E0F5D2
:10051700F0EFFBEEFAEDF9ECF81207F3A3A3A3A3B0
:10052700E8C0E0E9C0E0EAC0E0EBC0E0C0F01201DB
:100537001E12080FA3A3A3A312002DD0F0D0E0FB37
:0D054700D0E0FAD0E0F9D0E0F8D5F0D422F1
:100554003F8000004120000042C80000447A0000AF
:10056400461C400047C35000497424004B18968031
:100574004CBEBC205A0E1BCA6753C21C749DC5AE28
:10058400FB60065407601C23231205B2EB54386049
:100594000912059E1205AD12011EECF8EDF9EEFAF2
:1005A400EFCB22EB1205AD80F1543803241C9005E7
:1005B40054FE93FC0EEE93FD0EEE930ECE93FF22AB
:1019E100022295E493A3F8E493A34003F68001F265
:1019F10008DFF48029E493A3F85407240CC8C33307
:101A0100C4540F4420C8834004F456800146F6DFD5
:101A1100E4800B0102040810204080901F5EE47EE8
:101A2100019360BCA3FF543F30E509541FFEE493CA
:101A3100A360010ECF54C025E060A840B8E493A391
:101A4100FAE493A3F8E493A3C8C582C8CAC583CABC
:101A5100F0A3C8C582C8CAC583CADFE9DEE780BE74
:011FB0000030
:1005C400BB010689828A83E0225002E722BBFE0235
:0905D400E32289828A83E4932268
:1005DD00BB010CE58229F582E5833AF583E02250D3
:1005ED0006E92582F8E622BBFE06E92582F8E2221D
:0D05FD00E58229F582E5833AF583E4932237
:10060A00BB010FF8E58229F582E5833AF583E028F4
:10061A00F0225009C58229F8E58226F622BBFE0996
:10062A00C58229F8E22582F222F8EA2583F583E9D0
:03063A00932822E0
:10063D00BB010689828A83F0225002F722BBFE019C
:02064D00F32296
:10064F00F8BB010DE58229F582E5833AF583E8F0E1
:10065F00225006E92582C8F622BBFE05E92582C88D
:02066F00F22275
:10067100BC000BBE0029EF8DF084FFADF022E4CC6D
:10068100F875F008EF2FFFEE33FEEC33FCEE9DEC36
:10069100984005FCEE9DFE0FD5F0E9E4CEFD22ED7C
:1006A100F8F5F0EE8420D21CFEADF075F008EF2FC6
:1006B100FFED33FD4007985006D5F0F222C398FDB7
:0506C1000FD5F0EA2254
:1006C600C5F0F8A3E028F0C5F0F8E58215827002BF
:0606D6001583E038F0225C
:1006DC00A3F8E0C5F025F0F0E582158270021583D1
:0606EC00E0C838F0E8222E
:1006F200BB010A89828A83E0F5F0A3E022500687D3
:10070200F009E71922BBFE07E3F5F009E319228994
:0B071200828A83E493F5F074019322C7
:10071D00BB0110E58229F582E5833AF583E0F5F01A
:10072D00A3E0225009E92582F886F008E622BBFEF7
:10073D000AE92582F8E2F5F008E222E5832AF5833D
:08074D00E993F5F0A3E9932202
:10075500BB010DC58229C582C5833AC5830206C67C
:100765005011C58229F808E5F026F618F5F0E5825E
:1007750036F622BBFE11C58229F808E225F0F5F010
:10078500F218E23582F222F8E58229F582E5832A1C
:0D079500F58374019325F0F5F0E49338220C
:1007A200F8BB0111E58229F582E5833AF583E8F089
:1007B200E5F0A3F0225009E92582C8F608A6F02246
:0D07C200BBFE09E92582C8F2E5F008F2222D
:0E07CF00C3E49FFFE49EFEE49DFDE49CFC223B
:1007DD00EB9FF5F0EA9E42F0E99D42F0EC6480C893
:0607ED0064809845F02233
:1007F300E493FC740193FD740293FE740393FF224C
:0C080300E0F8A3E0F9A3E0FAA3E0FB2278
:10080F00E493F8740193F9740293FA740393FB223F
:0C081F00ECF0A3EDF0A3EEF0A3EFF0224C
:10082B00A8828583F0D083D082120842120842122C
:10083B000842120842E473E493A3C583C5F0C58351
:10084B00C8C582C8F0A3C583C5F0C583C8C582C817
:01085B00227A
:10085C00F8E0FBA3A3E0F925F0F0E5821582700225
:07086C001583E0FA38F022C9
:09087300EBF0A3EAF0A3E9F02286
:10087C00D083D082F8E4937012740193700DA3A30B
:10088C0093F8740193F5828883E47374029368601F
:06089C00EFA3A3A380DF1F
:0608A2008A838982E473E1
:00000001FF
